{
  "_format": "hh-sol-artifact-1",
  "contractName": "ERC721NFT",
  "sourceName": "contracts/ERC721NFT.sol",
  "abi": [
    {
      "inputs": [],
      "stateMutability": "nonpayable",
      "type": "constructor"
    },
    {
      "anonymous": false,
      "inputs": [
        {
          "indexed": true,
          "internalType": "address",
          "name": "owner",
          "type": "address"
        },
        {
          "indexed": true,
          "internalType": "address",
          "name": "approved",
          "type": "address"
        },
        {
          "indexed": true,
          "internalType": "uint256",
          "name": "tokenId",
          "type": "uint256"
        }
      ],
      "name": "Approval",
      "type": "event"
    },
    {
      "anonymous": false,
      "inputs": [
        {
          "indexed": true,
          "internalType": "address",
          "name": "owner",
          "type": "address"
        },
        {
          "indexed": true,
          "internalType": "address",
          "name": "operator",
          "type": "address"
        },
        {
          "indexed": false,
          "internalType": "bool",
          "name": "approved",
          "type": "bool"
        }
      ],
      "name": "ApprovalForAll",
      "type": "event"
    },
    {
      "anonymous": false,
      "inputs": [
        {
          "indexed": true,
          "internalType": "address",
          "name": "previousOwner",
          "type": "address"
        },
        {
          "indexed": true,
          "internalType": "address",
          "name": "newOwner",
          "type": "address"
        }
      ],
      "name": "OwnershipTransferred",
      "type": "event"
    },
    {
      "anonymous": false,
      "inputs": [
        {
          "indexed": true,
          "internalType": "address",
          "name": "from",
          "type": "address"
        },
        {
          "indexed": true,
          "internalType": "address",
          "name": "to",
          "type": "address"
        },
        {
          "indexed": true,
          "internalType": "uint256",
          "name": "tokenId",
          "type": "uint256"
        }
      ],
      "name": "Transfer",
      "type": "event"
    },
    {
      "inputs": [],
      "name": "DEFAULT_TOKEN_URI",
      "outputs": [
        {
          "internalType": "string",
          "name": "",
          "type": "string"
        }
      ],
      "stateMutability": "view",
      "type": "function"
    },
    {
      "inputs": [],
      "name": "MAX_UNITS",
      "outputs": [
        {
          "internalType": "uint256",
          "name": "",
          "type": "uint256"
        }
      ],
      "stateMutability": "view",
      "type": "function"
    },
    {
      "inputs": [
        {
          "internalType": "address",
          "name": "to",
          "type": "address"
        },
        {
          "internalType": "uint256",
          "name": "tokenId",
          "type": "uint256"
        }
      ],
      "name": "approve",
      "outputs": [],
      "stateMutability": "nonpayable",
      "type": "function"
    },
    {
      "inputs": [
        {
          "internalType": "address",
          "name": "owner",
          "type": "address"
        }
      ],
      "name": "balanceOf",
      "outputs": [
        {
          "internalType": "uint256",
          "name": "",
          "type": "uint256"
        }
      ],
      "stateMutability": "view",
      "type": "function"
    },
    {
      "inputs": [
        {
          "internalType": "uint256",
          "name": "tokenId",
          "type": "uint256"
        }
      ],
      "name": "getApproved",
      "outputs": [
        {
          "internalType": "address",
          "name": "",
          "type": "address"
        }
      ],
      "stateMutability": "view",
      "type": "function"
    },
    {
      "inputs": [
        {
          "internalType": "address",
          "name": "owner",
          "type": "address"
        },
        {
          "internalType": "address",
          "name": "operator",
          "type": "address"
        }
      ],
      "name": "isApprovedForAll",
      "outputs": [
        {
          "internalType": "bool",
          "name": "",
          "type": "bool"
        }
      ],
      "stateMutability": "view",
      "type": "function"
    },
    {
      "inputs": [
        {
          "internalType": "address",
          "name": "_to",
          "type": "address"
        },
        {
          "internalType": "uint256",
          "name": "_count",
          "type": "uint256"
        }
      ],
      "name": "mintTokens",
      "outputs": [],
      "stateMutability": "payable",
      "type": "function"
    },
    {
      "inputs": [],
      "name": "name",
      "outputs": [
        {
          "internalType": "string",
          "name": "",
          "type": "string"
        }
      ],
      "stateMutability": "view",
      "type": "function"
    },
    {
      "inputs": [],
      "name": "owner",
      "outputs": [
        {
          "internalType": "address",
          "name": "",
          "type": "address"
        }
      ],
      "stateMutability": "view",
      "type": "function"
    },
    {
      "inputs": [
        {
          "internalType": "uint256",
          "name": "tokenId",
          "type": "uint256"
        }
      ],
      "name": "ownerOf",
      "outputs": [
        {
          "internalType": "address",
          "name": "",
          "type": "address"
        }
      ],
      "stateMutability": "view",
      "type": "function"
    },
    {
      "inputs": [
        {
          "internalType": "uint256",
          "name": "_count",
          "type": "uint256"
        }
      ],
      "name": "price",
      "outputs": [
        {
          "internalType": "uint256",
          "name": "",
          "type": "uint256"
        }
      ],
      "stateMutability": "view",
      "type": "function"
    },
    {
      "inputs": [],
      "name": "renounceOwnership",
      "outputs": [],
      "stateMutability": "nonpayable",
      "type": "function"
    },
    {
      "inputs": [
        {
          "internalType": "uint256",
          "name": "_tokenId",
          "type": "uint256"
        },
        {
          "internalType": "uint256",
          "name": "_value",
          "type": "uint256"
        },
        {
          "internalType": "bytes",
          "name": "_data",
          "type": "bytes"
        }
      ],
      "name": "royaltyInfo",
      "outputs": [
        {
          "internalType": "address",
          "name": "_receiver",
          "type": "address"
        },
        {
          "internalType": "uint256",
          "name": "_royaltyAmount",
          "type": "uint256"
        },
        {
          "internalType": "bytes",
          "name": "_royaltyPaymentData",
          "type": "bytes"
        }
      ],
      "stateMutability": "view",
      "type": "function"
    },
    {
      "inputs": [
        {
          "internalType": "address",
          "name": "from",
          "type": "address"
        },
        {
          "internalType": "address",
          "name": "to",
          "type": "address"
        },
        {
          "internalType": "uint256",
          "name": "tokenId",
          "type": "uint256"
        }
      ],
      "name": "safeTransferFrom",
      "outputs": [],
      "stateMutability": "nonpayable",
      "type": "function"
    },
    {
      "inputs": [
        {
          "internalType": "address",
          "name": "from",
          "type": "address"
        },
        {
          "internalType": "address",
          "name": "to",
          "type": "address"
        },
        {
          "internalType": "uint256",
          "name": "tokenId",
          "type": "uint256"
        },
        {
          "internalType": "bytes",
          "name": "_data",
          "type": "bytes"
        }
      ],
      "name": "safeTransferFrom",
      "outputs": [],
      "stateMutability": "nonpayable",
      "type": "function"
    },
    {
      "inputs": [
        {
          "internalType": "address",
          "name": "operator",
          "type": "address"
        },
        {
          "internalType": "bool",
          "name": "approved",
          "type": "bool"
        }
      ],
      "name": "setApprovalForAll",
      "outputs": [],
      "stateMutability": "nonpayable",
      "type": "function"
    },
    {
      "inputs": [
        {
          "internalType": "bytes4",
          "name": "interfaceId",
          "type": "bytes4"
        }
      ],
      "name": "supportsInterface",
      "outputs": [
        {
          "internalType": "bool",
          "name": "",
          "type": "bool"
        }
      ],
      "stateMutability": "view",
      "type": "function"
    },
    {
      "inputs": [],
      "name": "symbol",
      "outputs": [
        {
          "internalType": "string",
          "name": "",
          "type": "string"
        }
      ],
      "stateMutability": "view",
      "type": "function"
    },
    {
      "inputs": [
        {
          "internalType": "uint256",
          "name": "index",
          "type": "uint256"
        }
      ],
      "name": "tokenByIndex",
      "outputs": [
        {
          "internalType": "uint256",
          "name": "",
          "type": "uint256"
        }
      ],
      "stateMutability": "view",
      "type": "function"
    },
    {
      "inputs": [
        {
          "internalType": "address",
          "name": "owner",
          "type": "address"
        },
        {
          "internalType": "uint256",
          "name": "index",
          "type": "uint256"
        }
      ],
      "name": "tokenOfOwnerByIndex",
      "outputs": [
        {
          "internalType": "uint256",
          "name": "",
          "type": "uint256"
        }
      ],
      "stateMutability": "view",
      "type": "function"
    },
    {
      "inputs": [
        {
          "internalType": "uint256",
          "name": "tokenId",
          "type": "uint256"
        }
      ],
      "name": "tokenURI",
      "outputs": [
        {
          "internalType": "string",
          "name": "",
          "type": "string"
        }
      ],
      "stateMutability": "view",
      "type": "function"
    },
    {
      "inputs": [],
      "name": "totalSupply",
      "outputs": [
        {
          "internalType": "uint256",
          "name": "",
          "type": "uint256"
        }
      ],
      "stateMutability": "view",
      "type": "function"
    },
    {
      "inputs": [
        {
          "internalType": "address",
          "name": "from",
          "type": "address"
        },
        {
          "internalType": "address",
          "name": "to",
          "type": "address"
        },
        {
          "internalType": "uint256",
          "name": "tokenId",
          "type": "uint256"
        }
      ],
      "name": "transferFrom",
      "outputs": [],
      "stateMutability": "nonpayable",
      "type": "function"
    },
    {
      "inputs": [
        {
          "internalType": "address",
          "name": "newOwner",
          "type": "address"
        }
      ],
      "name": "transferOwnership",
      "outputs": [],
      "stateMutability": "nonpayable",
      "type": "function"
    },
    {
      "inputs": [
        {
          "internalType": "uint256",
          "name": "_tokenId",
          "type": "uint256"
        },
        {
          "internalType": "string",
          "name": "_tokenURI",
          "type": "string"
        }
      ],
      "name": "updateTokenURI",
      "outputs": [],
      "stateMutability": "nonpayable",
      "type": "function"
    },
    {
      "inputs": [],
      "name": "withdrawAll",
      "outputs": [],
      "stateMutability": "payable",
      "type": "function"
    }
  ],
  "bytecode": "0x60806040523480156200001157600080fd5b506040518060400160405280600981526020017f4552433732314e465400000000000000000000000000000000000000000000008152506040518060400160405280600481526020017f455246540000000000000000000000000000000000000000000000000000000081525081600090805190602001906200009692919062000171565b508060019080519060200190620000af92919062000171565b5050506000620000c46200016960201b60201c565b905080600a60006101000a81548173ffffffffffffffffffffffffffffffffffffffff021916908373ffffffffffffffffffffffffffffffffffffffff1602179055508073ffffffffffffffffffffffffffffffffffffffff16600073ffffffffffffffffffffffffffffffffffffffff167f8be0079c531659141344cd1fd0a4f28419497f9722a3daafe3b4186f6b6457e060405160405180910390a35062000286565b600033905090565b8280546200017f9062000221565b90600052602060002090601f016020900481019282620001a35760008555620001ef565b82601f10620001be57805160ff1916838001178555620001ef565b82800160010185558215620001ef579182015b82811115620001ee578251825591602001919060010190620001d1565b5b509050620001fe919062000202565b5090565b5b808211156200021d57600081600090555060010162000203565b5090565b600060028204905060018216806200023a57607f821691505b6020821081141562000251576200025062000257565b5b50919050565b7f4e487b7100000000000000000000000000000000000000000000000000000000600052602260045260246000fd5b613ca480620002966000396000f3fe6080604052600436106101815760003560e01c8063642cbfb3116100d1578063a22cb4651161008a578063c87b56dd11610064578063c87b56dd14610589578063e985e9c5146105c6578063f0dda65c14610603578063f2fde38b1461061f57610181565b8063a22cb465146104f8578063b88d4fde14610521578063c155531d1461054a57610181565b8063642cbfb31461041957806370a0823114610444578063715018a614610481578063853828b6146104985780638da5cb5b146104a257806395d89b41146104cd57610181565b80632163837f1161013e5780632f745c59116101185780632f745c591461033957806342842e0e146103765780634f6ccce71461039f5780636352211e146103dc57610181565b80632163837f146102a857806323b872dd146102d357806326a49e37146102fc57610181565b806301ffc9a71461018657806306fdde03146101c3578063081812fc146101ee578063095ea7b31461022b57806318160ddd1461025457806318e97fd11461027f575b600080fd5b34801561019257600080fd5b506101ad60048036038101906101a89190612a0f565b610648565b6040516101ba91906134ae565b60405180910390f35b3480156101cf57600080fd5b506101d861065a565b6040516101e591906134c9565b60405180910390f35b3480156101fa57600080fd5b5061021560048036038101906102109190612a61565b6106ec565b6040516102229190613409565b60405180910390f35b34801561023757600080fd5b50610252600480360381019061024d91906129d3565b610771565b005b34801561026057600080fd5b50610269610889565b60405161027691906137cb565b60405180910390f35b34801561028b57600080fd5b506102a660048036038101906102a19190612a8a565b610896565b005b3480156102b457600080fd5b506102bd610919565b6040516102ca91906137cb565b60405180910390f35b3480156102df57600080fd5b506102fa60048036038101906102f591906128cd565b61091f565b005b34801561030857600080fd5b50610323600480360381019061031e9190612a61565b61097f565b60405161033091906137cb565b60405180910390f35b34801561034557600080fd5b50610360600480360381019061035b91906129d3565b61099b565b60405161036d91906137cb565b60405180910390f35b34801561038257600080fd5b5061039d600480360381019061039891906128cd565b610a40565b005b3480156103ab57600080fd5b506103c660048036038101906103c19190612a61565b610a60565b6040516103d391906137cb565b60405180910390f35b3480156103e857600080fd5b5061040360048036038101906103fe9190612a61565b610af7565b6040516104109190613409565b60405180910390f35b34801561042557600080fd5b5061042e610ba9565b60405161043b91906134c9565b60405180910390f35b34801561045057600080fd5b5061046b60048036038101906104669190612868565b610bc5565b60405161047891906137cb565b60405180910390f35b34801561048d57600080fd5b50610496610c7d565b005b6104a0610dba565b005b3480156104ae57600080fd5b506104b7610e7d565b6040516104c49190613409565b60405180910390f35b3480156104d957600080fd5b506104e2610ea7565b6040516104ef91906134c9565b60405180910390f35b34801561050457600080fd5b5061051f600480360381019061051a9190612997565b610f39565b005b34801561052d57600080fd5b506105486004803603810190610543919061291c565b6110ba565b005b34801561055657600080fd5b50610571600480360381019061056c9190612ade565b61111c565b60405161058093929190613470565b60405180910390f35b34801561059557600080fd5b506105b060048036038101906105ab9190612a61565b611191565b6040516105bd91906134c9565b60405180910390f35b3480156105d257600080fd5b506105ed60048036038101906105e89190612891565b6112b6565b6040516105fa91906134ae565b60405180910390f35b61061d600480360381019061061891906129d3565b61134a565b005b34801561062b57600080fd5b5061064660048036038101906106419190612868565b6114b6565b005b600061065382611662565b9050919050565b60606000805461066990613a7a565b80601f016020809104026020016040519081016040528092919081815260200182805461069590613a7a565b80156106e25780601f106106b7576101008083540402835291602001916106e2565b820191906000526020600020905b8154815290600101906020018083116106c557829003601f168201915b5050505050905090565b60006106f7826116c3565b610736576040517f08c379a000000000000000000000000000000000000000000000000000000000815260040161072d906136eb565b60405180910390fd5b6004600083815260200190815260200160002060009054906101000a900473ffffffffffffffffffffffffffffffffffffffff169050919050565b600061077c82610af7565b90508073ffffffffffffffffffffffffffffffffffffffff168373ffffffffffffffffffffffffffffffffffffffff1614156107ed576040517f08c379a00000000000000000000000000000000000000000000000000000000081526004016107e49061376b565b60405180910390fd5b8073ffffffffffffffffffffffffffffffffffffffff1661080c61172f565b73ffffffffffffffffffffffffffffffffffffffff16148061083b575061083a8161083561172f565b6112b6565b5b61087a576040517f08c379a00000000000000000000000000000000000000000000000000000000081526004016108719061360b565b60405180910390fd5b6108848383611737565b505050565b6000600880549050905090565b61089e610e7d565b73ffffffffffffffffffffffffffffffffffffffff163373ffffffffffffffffffffffffffffffffffffffff161461090b576040517f08c379a0000000000000000000000000000000000000000000000000000000008152600401610902906134eb565b60405180910390fd5b61091582826117f0565b5050565b61271081565b61093061092a61172f565b82611864565b61096f576040517f08c379a00000000000000000000000000000000000000000000000000000000081526004016109669061378b565b60405180910390fd5b61097a838383611942565b505050565b6000816611c37937e080006109949190613936565b9050919050565b60006109a683610bc5565b82106109e7576040517f08c379a00000000000000000000000000000000000000000000000000000000081526004016109de9061350b565b60405180910390fd5b600660008473ffffffffffffffffffffffffffffffffffffffff1673ffffffffffffffffffffffffffffffffffffffff168152602001908152602001600020600083815260200190815260200160002054905092915050565b610a5b838383604051806020016040528060008152506110ba565b505050565b6000610a6a610889565b8210610aab576040517f08c379a0000000000000000000000000000000000000000000000000000000008152600401610aa2906137ab565b60405180910390fd5b60088281548110610ae5577f4e487b7100000000000000000000000000000000000000000000000000000000600052603260045260246000fd5b90600052602060002001549050919050565b6000806002600084815260200190815260200160002060009054906101000a900473ffffffffffffffffffffffffffffffffffffffff169050600073ffffffffffffffffffffffffffffffffffffffff168173ffffffffffffffffffffffffffffffffffffffff161415610ba0576040517f08c379a0000000000000000000000000000000000000000000000000000000008152600401610b979061364b565b60405180910390fd5b80915050919050565b604051806080016040528060508152602001613c1f6050913981565b60008073ffffffffffffffffffffffffffffffffffffffff168273ffffffffffffffffffffffffffffffffffffffff161415610c36576040517f08c379a0000000000000000000000000000000000000000000000000000000008152600401610c2d9061362b565b60405180910390fd5b600360008373ffffffffffffffffffffffffffffffffffffffff1673ffffffffffffffffffffffffffffffffffffffff168152602001908152602001600020549050919050565b610c8561172f565b73ffffffffffffffffffffffffffffffffffffffff16610ca3610e7d565b73ffffffffffffffffffffffffffffffffffffffff1614610cf9576040517f08c379a0000000000000000000000000000000000000000000000000000000008152600401610cf09061370b565b60405180910390fd5b600073ffffffffffffffffffffffffffffffffffffffff16600a60009054906101000a900473ffffffffffffffffffffffffffffffffffffffff1673ffffffffffffffffffffffffffffffffffffffff167f8be0079c531659141344cd1fd0a4f28419497f9722a3daafe3b4186f6b6457e060405160405180910390a36000600a60006101000a81548173ffffffffffffffffffffffffffffffffffffffff021916908373ffffffffffffffffffffffffffffffffffffffff160217905550565b610dc261172f565b73ffffffffffffffffffffffffffffffffffffffff16610de0610e7d565b73ffffffffffffffffffffffffffffffffffffffff1614610e36576040517f08c379a0000000000000000000000000000000000000000000000000000000008152600401610e2d9061370b565b60405180910390fd5b610e3e61172f565b73ffffffffffffffffffffffffffffffffffffffff166108fc479081150290604051600060405180830381858888f19350505050610e7b57600080fd5b565b6000600a60009054906101000a900473ffffffffffffffffffffffffffffffffffffffff16905090565b606060018054610eb690613a7a565b80601f0160208091040260200160405190810160405280929190818152602001828054610ee290613a7a565b8015610f2f5780601f10610f0457610100808354040283529160200191610f2f565b820191906000526020600020905b815481529060010190602001808311610f1257829003601f168201915b5050505050905090565b610f4161172f565b73ffffffffffffffffffffffffffffffffffffffff168273ffffffffffffffffffffffffffffffffffffffff161415610faf576040517f08c379a0000000000000000000000000000000000000000000000000000000008152600401610fa6906135ab565b60405180910390fd5b8060056000610fbc61172f565b73ffffffffffffffffffffffffffffffffffffffff1673ffffffffffffffffffffffffffffffffffffffff16815260200190815260200160002060008473ffffffffffffffffffffffffffffffffffffffff1673ffffffffffffffffffffffffffffffffffffffff16815260200190815260200160002060006101000a81548160ff0219169083151502179055508173ffffffffffffffffffffffffffffffffffffffff1661106961172f565b73ffffffffffffffffffffffffffffffffffffffff167f17307eab39ab6107e8899845ad3d59bd9653f200f220920489ca2b5937696c31836040516110ae91906134ae565b60405180910390a35050565b6110cb6110c561172f565b83611864565b61110a576040517f08c379a00000000000000000000000000000000000000000000000000000000081526004016111019061378b565b60405180910390fd5b61111684848484611b9e565b50505050565b6000806060611129610e7d565b600a876111369190613905565b868681818080601f016020809104026020016040519081016040528093929190818152602001838380828437600081840152601f19601f82011690508083019250505050505050905090509250925092509450945094915050565b606061119c826116c3565b6111db576040517f08c379a00000000000000000000000000000000000000000000000000000000081526004016111d2906136cb565b60405180910390fd5b6000600b600084815260200190815260200160002080546111fb90613a7a565b80601f016020809104026020016040519081016040528092919081815260200182805461122790613a7a565b80156112745780601f1061124957610100808354040283529160200191611274565b820191906000526020600020905b81548152906001019060200180831161125757829003601f168201915b5050505050905060008151111561128e57809150506112b1565b6000604051806080016040528060508152602001613c1f60509139905080925050505b919050565b6000600560008473ffffffffffffffffffffffffffffffffffffffff1673ffffffffffffffffffffffffffffffffffffffff16815260200190815260200160002060008373ffffffffffffffffffffffffffffffffffffffff1673ffffffffffffffffffffffffffffffffffffffff16815260200190815260200160002060009054906101000a900460ff16905092915050565b612710611355610889565b10611395576040517f08c379a000000000000000000000000000000000000000000000000000000000815260040161138c906136ab565b60405180910390fd5b612710816113a1610889565b6113ab91906138af565b11156113ec576040517f08c379a00000000000000000000000000000000000000000000000000000000081526004016113e3906135cb565b60405180910390fd5b6127106113f7610889565b10611437576040517f08c379a000000000000000000000000000000000000000000000000000000000815260040161142e906136ab565b60405180910390fd5b6114408161097f565b341015611482576040517f08c379a00000000000000000000000000000000000000000000000000000000081526004016114799061374b565b60405180910390fd5b60005b818110156114b15761149e83611499610889565b611bfa565b80806114a990613aac565b915050611485565b505050565b6114be61172f565b73ffffffffffffffffffffffffffffffffffffffff166114dc610e7d565b73ffffffffffffffffffffffffffffffffffffffff1614611532576040517f08c379a00000000000000000000000000000000000000000000000000000000081526004016115299061370b565b60405180910390fd5b600073ffffffffffffffffffffffffffffffffffffffff168173ffffffffffffffffffffffffffffffffffffffff1614156115a2576040517f08c379a00000000000000000000000000000000000000000000000000000000081526004016115999061354b565b60405180910390fd5b8073ffffffffffffffffffffffffffffffffffffffff16600a60009054906101000a900473ffffffffffffffffffffffffffffffffffffffff1673ffffffffffffffffffffffffffffffffffffffff167f8be0079c531659141344cd1fd0a4f28419497f9722a3daafe3b4186f6b6457e060405160405180910390a380600a60006101000a81548173ffffffffffffffffffffffffffffffffffffffff021916908373ffffffffffffffffffffffffffffffffffffffff16021790555050565b600063c155531d60e01b7bffffffffffffffffffffffffffffffffffffffffffffffffffffffff1916827bffffffffffffffffffffffffffffffffffffffffffffffffffffffff191614806116bc57506116bb82611c18565b5b9050919050565b60008073ffffffffffffffffffffffffffffffffffffffff166002600084815260200190815260200160002060009054906101000a900473ffffffffffffffffffffffffffffffffffffffff1673ffffffffffffffffffffffffffffffffffffffff1614159050919050565b600033905090565b816004600083815260200190815260200160002060006101000a81548173ffffffffffffffffffffffffffffffffffffffff021916908373ffffffffffffffffffffffffffffffffffffffff160217905550808273ffffffffffffffffffffffffffffffffffffffff166117aa83610af7565b73ffffffffffffffffffffffffffffffffffffffff167f8c5be1e5ebec7d5bd14f71427d1e84f3dd0314c0f7b2291e5b200ac8c7c3b92560405160405180910390a45050565b6117f9826116c3565b611838576040517f08c379a000000000000000000000000000000000000000000000000000000000815260040161182f9061366b565b60405180910390fd5b80600b6000848152602001908152602001600020908051906020019061185f929190612642565b505050565b600061186f826116c3565b6118ae576040517f08c379a00000000000000000000000000000000000000000000000000000000081526004016118a5906135eb565b60405180910390fd5b60006118b983610af7565b90508073ffffffffffffffffffffffffffffffffffffffff168473ffffffffffffffffffffffffffffffffffffffff16148061192857508373ffffffffffffffffffffffffffffffffffffffff16611910846106ec565b73ffffffffffffffffffffffffffffffffffffffff16145b80611939575061193881856112b6565b5b91505092915050565b8273ffffffffffffffffffffffffffffffffffffffff1661196282610af7565b73ffffffffffffffffffffffffffffffffffffffff16146119b8576040517f08c379a00000000000000000000000000000000000000000000000000000000081526004016119af9061372b565b60405180910390fd5b600073ffffffffffffffffffffffffffffffffffffffff168273ffffffffffffffffffffffffffffffffffffffff161415611a28576040517f08c379a0000000000000000000000000000000000000000000000000000000008152600401611a1f9061358b565b60405180910390fd5b611a33838383611c92565b611a3e600082611737565b6001600360008573ffffffffffffffffffffffffffffffffffffffff1673ffffffffffffffffffffffffffffffffffffffff1681526020019081526020016000206000828254611a8e9190613990565b925050819055506001600360008473ffffffffffffffffffffffffffffffffffffffff1673ffffffffffffffffffffffffffffffffffffffff1681526020019081526020016000206000828254611ae591906138af565b92505081905550816002600083815260200190815260200160002060006101000a81548173ffffffffffffffffffffffffffffffffffffffff021916908373ffffffffffffffffffffffffffffffffffffffff160217905550808273ffffffffffffffffffffffffffffffffffffffff168473ffffffffffffffffffffffffffffffffffffffff167fddf252ad1be2c89b69c2b068fc378daa952ba7f163c4a11628f55a4df523b3ef60405160405180910390a4505050565b611ba9848484611942565b611bb584848484611da6565b611bf4576040517f08c379a0000000000000000000000000000000000000000000000000000000008152600401611beb9061352b565b60405180910390fd5b50505050565b611c14828260405180602001604052806000815250611f3d565b5050565b60007f780e9d63000000000000000000000000000000000000000000000000000000007bffffffffffffffffffffffffffffffffffffffffffffffffffffffff1916827bffffffffffffffffffffffffffffffffffffffffffffffffffffffff19161480611c8b5750611c8a82611f98565b5b9050919050565b611c9d83838361207a565b600073ffffffffffffffffffffffffffffffffffffffff168373ffffffffffffffffffffffffffffffffffffffff161415611ce057611cdb8161207f565b611d1f565b8173ffffffffffffffffffffffffffffffffffffffff168373ffffffffffffffffffffffffffffffffffffffff1614611d1e57611d1d83826120c8565b5b5b600073ffffffffffffffffffffffffffffffffffffffff168273ffffffffffffffffffffffffffffffffffffffff161415611d6257611d5d81612235565b611da1565b8273ffffffffffffffffffffffffffffffffffffffff168273ffffffffffffffffffffffffffffffffffffffff1614611da057611d9f8282612378565b5b5b505050565b6000611dc78473ffffffffffffffffffffffffffffffffffffffff166123f7565b15611f30578373ffffffffffffffffffffffffffffffffffffffff1663150b7a02611df061172f565b8786866040518563ffffffff1660e01b8152600401611e129493929190613424565b602060405180830381600087803b158015611e2c57600080fd5b505af1925050508015611e5d57506040513d601f19601f82011682018060405250810190611e5a9190612a38565b60015b611ee0573d8060008114611e8d576040519150601f19603f3d011682016040523d82523d6000602084013e611e92565b606091505b50600081511415611ed8576040517f08c379a0000000000000000000000000000000000000000000000000000000008152600401611ecf9061352b565b60405180910390fd5b805181602001fd5b63150b7a0260e01b7bffffffffffffffffffffffffffffffffffffffffffffffffffffffff1916817bffffffffffffffffffffffffffffffffffffffffffffffffffffffff191614915050611f35565b600190505b949350505050565b611f47838361240a565b611f546000848484611da6565b611f93576040517f08c379a0000000000000000000000000000000000000000000000000000000008152600401611f8a9061352b565b60405180910390fd5b505050565b60007f80ac58cd000000000000000000000000000000000000000000000000000000007bffffffffffffffffffffffffffffffffffffffffffffffffffffffff1916827bffffffffffffffffffffffffffffffffffffffffffffffffffffffff1916148061206357507f5b5e139f000000000000000000000000000000000000000000000000000000007bffffffffffffffffffffffffffffffffffffffffffffffffffffffff1916827bffffffffffffffffffffffffffffffffffffffffffffffffffffffff1916145b806120735750612072826125d8565b5b9050919050565b505050565b6008805490506009600083815260200190815260200160002081905550600881908060018154018082558091505060019003906000526020600020016000909190919091505550565b600060016120d584610bc5565b6120df9190613990565b90506000600760008481526020019081526020016000205490508181146121c4576000600660008673ffffffffffffffffffffffffffffffffffffffff1673ffffffffffffffffffffffffffffffffffffffff168152602001908152602001600020600084815260200190815260200160002054905080600660008773ffffffffffffffffffffffffffffffffffffffff1673ffffffffffffffffffffffffffffffffffffffff168152602001908152602001600020600084815260200190815260200160002081905550816007600083815260200190815260200160002081905550505b6007600084815260200190815260200160002060009055600660008573ffffffffffffffffffffffffffffffffffffffff1673ffffffffffffffffffffffffffffffffffffffff16815260200190815260200160002060008381526020019081526020016000206000905550505050565b600060016008805490506122499190613990565b905060006009600084815260200190815260200160002054905060006008838154811061229f577f4e487b7100000000000000000000000000000000000000000000000000000000600052603260045260246000fd5b9060005260206000200154905080600883815481106122e7577f4e487b7100000000000000000000000000000000000000000000000000000000600052603260045260246000fd5b90600052602060002001819055508160096000838152602001908152602001600020819055506009600085815260200190815260200160002060009055600880548061235c577f4e487b7100000000000000000000000000000000000000000000000000000000600052603160045260246000fd5b6001900381819060005260206000200160009055905550505050565b600061238383610bc5565b905081600660008573ffffffffffffffffffffffffffffffffffffffff1673ffffffffffffffffffffffffffffffffffffffff168152602001908152602001600020600083815260200190815260200160002081905550806007600084815260200190815260200160002081905550505050565b600080823b905060008111915050919050565b600073ffffffffffffffffffffffffffffffffffffffff168273ffffffffffffffffffffffffffffffffffffffff16141561247a576040517f08c379a00000000000000000000000000000000000000000000000000000000081526004016124719061368b565b60405180910390fd5b612483816116c3565b156124c3576040517f08c379a00000000000000000000000000000000000000000000000000000000081526004016124ba9061356b565b60405180910390fd5b6124cf60008383611c92565b6001600360008473ffffffffffffffffffffffffffffffffffffffff1673ffffffffffffffffffffffffffffffffffffffff168152602001908152602001600020600082825461251f91906138af565b92505081905550816002600083815260200190815260200160002060006101000a81548173ffffffffffffffffffffffffffffffffffffffff021916908373ffffffffffffffffffffffffffffffffffffffff160217905550808273ffffffffffffffffffffffffffffffffffffffff16600073ffffffffffffffffffffffffffffffffffffffff167fddf252ad1be2c89b69c2b068fc378daa952ba7f163c4a11628f55a4df523b3ef60405160405180910390a45050565b60007f01ffc9a7000000000000000000000000000000000000000000000000000000007bffffffffffffffffffffffffffffffffffffffffffffffffffffffff1916827bffffffffffffffffffffffffffffffffffffffffffffffffffffffff1916149050919050565b82805461264e90613a7a565b90600052602060002090601f01602090048101928261267057600085556126b7565b82601f1061268957805160ff19168380011785556126b7565b828001600101855582156126b7579182015b828111156126b657825182559160200191906001019061269b565b5b5090506126c491906126c8565b5090565b5b808211156126e15760008160009055506001016126c9565b5090565b60006126f86126f384613817565b6137e6565b90508281526020810184848401111561271057600080fd5b61271b848285613a38565b509392505050565b600061273661273184613847565b6137e6565b90508281526020810184848401111561274e57600080fd5b612759848285613a38565b509392505050565b60008135905061277081613bc2565b92915050565b60008135905061278581613bd9565b92915050565b60008135905061279a81613bf0565b92915050565b6000815190506127af81613bf0565b92915050565b60008083601f8401126127c757600080fd5b8235905067ffffffffffffffff8111156127e057600080fd5b6020830191508360018202830111156127f857600080fd5b9250929050565b600082601f83011261281057600080fd5b81356128208482602086016126e5565b91505092915050565b600082601f83011261283a57600080fd5b813561284a848260208601612723565b91505092915050565b60008135905061286281613c07565b92915050565b60006020828403121561287a57600080fd5b600061288884828501612761565b91505092915050565b600080604083850312156128a457600080fd5b60006128b285828601612761565b92505060206128c385828601612761565b9150509250929050565b6000806000606084860312156128e257600080fd5b60006128f086828701612761565b935050602061290186828701612761565b925050604061291286828701612853565b9150509250925092565b6000806000806080858703121561293257600080fd5b600061294087828801612761565b945050602061295187828801612761565b935050604061296287828801612853565b925050606085013567ffffffffffffffff81111561297f57600080fd5b61298b878288016127ff565b91505092959194509250565b600080604083850312156129aa57600080fd5b60006129b885828601612761565b92505060206129c985828601612776565b9150509250929050565b600080604083850312156129e657600080fd5b60006129f485828601612761565b9250506020612a0585828601612853565b9150509250929050565b600060208284031215612a2157600080fd5b6000612a2f8482850161278b565b91505092915050565b600060208284031215612a4a57600080fd5b6000612a58848285016127a0565b91505092915050565b600060208284031215612a7357600080fd5b6000612a8184828501612853565b91505092915050565b60008060408385031215612a9d57600080fd5b6000612aab85828601612853565b925050602083013567ffffffffffffffff811115612ac857600080fd5b612ad485828601612829565b9150509250929050565b60008060008060608587031215612af457600080fd5b6000612b0287828801612853565b9450506020612b1387828801612853565b935050604085013567ffffffffffffffff811115612b3057600080fd5b612b3c878288016127b5565b925092505092959194509250565b612b53816139c4565b82525050565b612b62816139d6565b82525050565b6000612b7382613877565b612b7d818561388d565b9350612b8d818560208601613a47565b612b9681613bb1565b840191505092915050565b6000612bac82613882565b612bb6818561389e565b9350612bc6818560208601613a47565b612bcf81613bb1565b840191505092915050565b6000612be760238361389e565b91507f4f6e6c79206f776e65722063616e206368616e67652074686520746f6b656e2060008301527f55524900000000000000000000000000000000000000000000000000000000006020830152604082019050919050565b6000612c4d602b8361389e565b91507f455243373231456e756d657261626c653a206f776e657220696e646578206f7560008301527f74206f6620626f756e64730000000000000000000000000000000000000000006020830152604082019050919050565b6000612cb360328361389e565b91507f4552433732313a207472616e7366657220746f206e6f6e20455243373231526560008301527f63656976657220696d706c656d656e74657200000000000000000000000000006020830152604082019050919050565b6000612d1960268361389e565b91507f4f776e61626c653a206e6577206f776e657220697320746865207a65726f206160008301527f64647265737300000000000000000000000000000000000000000000000000006020830152604082019050919050565b6000612d7f601c8361389e565b91507f4552433732313a20746f6b656e20616c7265616479206d696e746564000000006000830152602082019050919050565b6000612dbf60248361389e565b91507f4552433732313a207472616e7366657220746f20746865207a65726f2061646460008301527f72657373000000000000000000000000000000000000000000000000000000006020830152604082019050919050565b6000612e2560198361389e565b91507f4552433732313a20617070726f766520746f2063616c6c6572000000000000006000830152602082019050919050565b6000612e6560098361389e565b91507f4d6178206c696d697400000000000000000000000000000000000000000000006000830152602082019050919050565b6000612ea5602c8361389e565b91507f4552433732313a206f70657261746f7220717565727920666f72206e6f6e657860008301527f697374656e7420746f6b656e00000000000000000000000000000000000000006020830152604082019050919050565b6000612f0b60388361389e565b91507f4552433732313a20617070726f76652063616c6c6572206973206e6f74206f7760008301527f6e6572206e6f7220617070726f76656420666f7220616c6c00000000000000006020830152604082019050919050565b6000612f71602a8361389e565b91507f4552433732313a2062616c616e636520717565727920666f7220746865207a6560008301527f726f2061646472657373000000000000000000000000000000000000000000006020830152604082019050919050565b6000612fd760298361389e565b91507f4552433732313a206f776e657220717565727920666f72206e6f6e657869737460008301527f656e7420746f6b656e00000000000000000000000000000000000000000000006020830152604082019050919050565b600061303d602e8361389e565b91507f45524337323155524953746f726167653a2055524920736574206f66206e6f6e60008301527f6578697374656e7420746f6b656e0000000000000000000000000000000000006020830152604082019050919050565b60006130a360208361389e565b91507f4552433732313a206d696e7420746f20746865207a65726f20616464726573736000830152602082019050919050565b60006130e360088361389e565b91507f53616c6520656e640000000000000000000000000000000000000000000000006000830152602082019050919050565b600061312360318361389e565b91507f45524337323155524953746f726167653a2055524920717565727920666f722060008301527f6e6f6e6578697374656e7420746f6b656e0000000000000000000000000000006020830152604082019050919050565b6000613189602c8361389e565b91507f4552433732313a20617070726f76656420717565727920666f72206e6f6e657860008301527f697374656e7420746f6b656e00000000000000000000000000000000000000006020830152604082019050919050565b60006131ef60208361389e565b91507f4f776e61626c653a2063616c6c6572206973206e6f7420746865206f776e65726000830152602082019050919050565b600061322f60298361389e565b91507f4552433732313a207472616e73666572206f6620746f6b656e2074686174206960008301527f73206e6f74206f776e00000000000000000000000000000000000000000000006020830152604082019050919050565b600061329560118361389e565b91507f56616c75652062656c6f772070726963650000000000000000000000000000006000830152602082019050919050565b60006132d560218361389e565b91507f4552433732313a20617070726f76616c20746f2063757272656e74206f776e6560008301527f72000000000000000000000000000000000000000000000000000000000000006020830152604082019050919050565b600061333b60318361389e565b91507f4552433732313a207472616e736665722063616c6c6572206973206e6f74206f60008301527f776e6572206e6f7220617070726f7665640000000000000000000000000000006020830152604082019050919050565b60006133a1602c8361389e565b91507f455243373231456e756d657261626c653a20676c6f62616c20696e646578206f60008301527f7574206f6620626f756e647300000000000000000000000000000000000000006020830152604082019050919050565b61340381613a2e565b82525050565b600060208201905061341e6000830184612b4a565b92915050565b60006080820190506134396000830187612b4a565b6134466020830186612b4a565b61345360408301856133fa565b81810360608301526134658184612b68565b905095945050505050565b60006060820190506134856000830186612b4a565b61349260208301856133fa565b81810360408301526134a48184612b68565b9050949350505050565b60006020820190506134c36000830184612b59565b92915050565b600060208201905081810360008301526134e38184612ba1565b905092915050565b6000602082019050818103600083015261350481612bda565b9050919050565b6000602082019050818103600083015261352481612c40565b9050919050565b6000602082019050818103600083015261354481612ca6565b9050919050565b6000602082019050818103600083015261356481612d0c565b9050919050565b6000602082019050818103600083015261358481612d72565b9050919050565b600060208201905081810360008301526135a481612db2565b9050919050565b600060208201905081810360008301526135c481612e18565b9050919050565b600060208201905081810360008301526135e481612e58565b9050919050565b6000602082019050818103600083015261360481612e98565b9050919050565b6000602082019050818103600083015261362481612efe565b9050919050565b6000602082019050818103600083015261364481612f64565b9050919050565b6000602082019050818103600083015261366481612fca565b9050919050565b6000602082019050818103600083015261368481613030565b9050919050565b600060208201905081810360008301526136a481613096565b9050919050565b600060208201905081810360008301526136c4816130d6565b9050919050565b600060208201905081810360008301526136e481613116565b9050919050565b600060208201905081810360008301526137048161317c565b9050919050565b60006020820190508181036000830152613724816131e2565b9050919050565b6000602082019050818103600083015261374481613222565b9050919050565b6000602082019050818103600083015261376481613288565b9050919050565b60006020820190508181036000830152613784816132c8565b9050919050565b600060208201905081810360008301526137a48161332e565b9050919050565b600060208201905081810360008301526137c481613394565b9050919050565b60006020820190506137e060008301846133fa565b92915050565b6000604051905081810181811067ffffffffffffffff8211171561380d5761380c613b82565b5b8060405250919050565b600067ffffffffffffffff82111561383257613831613b82565b5b601f19601f8301169050602081019050919050565b600067ffffffffffffffff82111561386257613861613b82565b5b601f19601f8301169050602081019050919050565b600081519050919050565b600081519050919050565b600082825260208201905092915050565b600082825260208201905092915050565b60006138ba82613a2e565b91506138c583613a2e565b9250827fffffffffffffffffffffffffffffffffffffffffffffffffffffffffffffffff038211156138fa576138f9613af5565b5b828201905092915050565b600061391082613a2e565b915061391b83613a2e565b92508261392b5761392a613b24565b5b828204905092915050565b600061394182613a2e565b915061394c83613a2e565b9250817fffffffffffffffffffffffffffffffffffffffffffffffffffffffffffffffff048311821515161561398557613984613af5565b5b828202905092915050565b600061399b82613a2e565b91506139a683613a2e565b9250828210156139b9576139b8613af5565b5b828203905092915050565b60006139cf82613a0e565b9050919050565b60008115159050919050565b60007fffffffff0000000000000000000000000000000000000000000000000000000082169050919050565b600073ffffffffffffffffffffffffffffffffffffffff82169050919050565b6000819050919050565b82818337600083830152505050565b60005b83811015613a65578082015181840152602081019050613a4a565b83811115613a74576000848401525b50505050565b60006002820490506001821680613a9257607f821691505b60208210811415613aa657613aa5613b53565b5b50919050565b6000613ab782613a2e565b91507fffffffffffffffffffffffffffffffffffffffffffffffffffffffffffffffff821415613aea57613ae9613af5565b5b600182019050919050565b7f4e487b7100000000000000000000000000000000000000000000000000000000600052601160045260246000fd5b7f4e487b7100000000000000000000000000000000000000000000000000000000600052601260045260246000fd5b7f4e487b7100000000000000000000000000000000000000000000000000000000600052602260045260246000fd5b7f4e487b7100000000000000000000000000000000000000000000000000000000600052604160045260246000fd5b6000601f19601f8301169050919050565b613bcb816139c4565b8114613bd657600080fd5b50565b613be2816139d6565b8114613bed57600080fd5b50565b613bf9816139e2565b8114613c0457600080fd5b50565b613c1081613a2e565b8114613c1b57600080fd5b5056fe68747470733a2f2f676174657761792e70696e6174612e636c6f75642f697066732f516d5150476f776234725a7164477263357644774b446374646745637334626d6852654d627469766b72736e5764a264697066735822122087f2132a96e99f2b5e2fb4c073ba86a18b4471511c41f85f0b376804048aa8ad64736f6c63430008000033",
  "linkReferences": {},
  "deployedLinkReferences": {}
}